:020000040800F2
:10000000203E0020A10100087F190008B116000859
:100010007D1900081D030008151E000800000000DF
:1000200000000000000000000000000009010008BE
:100030001F030008000000004D010008011A00081D
:10004000BB010008BB010008BB010008BB010008A0
:10005000BB010008BB010008210300082F030008B2
:10006000BB010008BB010008BB010008BB01000880
:10007000BB010008BB010008BB010008BB01000870
:10008000BB010008BB010008BB010008BB01000860
:10009000BB010008BB010008BB01000835030008D4
:1000A00000000000BB010008BB010008BB01000804
:1000B0009D1A0008A91A0008BB010008BB0100082E
:1000C000BB010008BB010008BB010008BB01000820
:1000D000BB010008091E0008BB010008BB010008A5
:1000E00027030008BB010008BB010008BB01000892
:1000F000BB010008DFF80CD000F0FEF80048004714
:10010000FD200008203E0020224B19680868B0E856
:10011000F00F80F30988BFF36F8F4FF0000080F37A
:1001200011884EF00D0E7047000000000648006870
:10013000006880F3088862B661B6BFF34F8FBFF3E3
:100140006F8F00DF00BF00BF08ED00E0EFF3098014
:10015000BFF36F8F0F4B1A6820E9F00F106008B5DE
:100160004FF0500080F31188BFF34F8FBFF36F8FB4
:1001700003F082F84FF0000080F31188BDE80840DA
:1001800019680868B0E8F00F80F30988BFF36F8F33
:10019000704700BF24000020EFF305807047000087
:1001A0000648804706480047FEE7FEE7FEE7FEE711
:1001B000FEE7FEE7FEE7FEE7FEE7FEE7991A000826
:1001C000F50000082DE9F05F0546002092469B46A9
:1001D00088460646814640241BE02846414647465D
:1001E000224600F079F853465A46C01A914110D37E
:1001F00011461846224600F060F82D1A67EB0108F8
:100200004F4622460120002100F057F817EB000965
:100210004E41201EA4F10104DFDC484631462A4647
:100220004346BDE8F09F40EA01039B0703D009E085
:1002300008C9121F08C0042AFAD203E011F8013BD2
:1002400000F8013B521EF9D27047D2B201E000F82B
:10025000012B491EFBD270470022F6E710B513466A
:100260000A4604461946FFF7F0FF204610BD421C1F
:1002700010F8011B0029FBD1801A7047034611F8C2
:10028000012B00F8012B002AF9D11846704730B530
:100290000B46014600202022012409E021FA02F544
:1002A0009D4205D303FA02F5491B04FA02F52844DE
:1002B000151EA2F10102F1DC30BD202A04DB203A38
:1002C00000FA02F1002070479140C2F1200320FAA9
:1002D00003F3194390407047202A04DB203A21FAA7
:1002E00002F00021704721FA02F3D040C2F120024F
:1002F0009140084319467047064C074D06E0E068F8
:1003000040F0010394E8070098471034AC42F6D35C
:10031000FFF7F4FE3C3C00085C3C0008FEE7704739
:10032000012000F059B84FF4005000F055B80220F9
:1003300000F052B8402000F04FB872B6FEE710B59A
:1003400090F821100022022905D00421816380F851
:100350002020012010BD01680B6823F00E030B6004
:1003600001680B6823F001030B6090F84010C46B28
:1003700001F01C03012101FA03F3636080F82110EE
:1003800080F82020104610BD10B590F821100024F0
:10039000022903D00421816301241AE001680A685C
:1003A00022F00E020A6001680A6822F001020A6067
:1003B00090F84010C36B01F01C02012101FA02F217
:1003C0005A6080F82110002180F82010416B01B1A3
:1003D0008847204610BD7047044910B50A6802429C
:1003E00002D00860FFF7F7FF10BD000014040140C1
:1003F0002DE9F04FDFF80C92002209F1040A0125E3
:1004000003240AF1040B85B00F260BF1040EF0E073
:1004100005FA02F71CEA07037ED091F804C00CF03D
:10042000030CBCF1010F02D0BCF1020F26D1D0F8B1
:1004300008C0CDF800C04FEA420C04FA0CF8CDF821
:1004400010C0DDF800C02CEA080CCDF800C0D1F8CF
:100450000C80DDF810C008FA0CF8DDF800C048EA9E
:100460000C08C0F80880D0F804C02CEA070C0F79FB
:10047000C7F30017974047EA0C0747600F79FF431F
:10048000BF070ED0C7684FEA420804FA08FC27EA03
:100490000C07D1F808C00CFA08FC4CEA070CC0F8AD
:1004A0000CC00F7907F00307022F15D1D70800EB16
:1004B000870702973F6A4FEA427C4FEADC6806FAF8
:1004C00008FC27EA0C07D1F810C00CFA08FC4CEA2B
:1004D000070C029FC7F820C007684FEA420804FAD9
:1004E00008FC27EA0C0791F804C00CF0030C0CFA86
:1004F00008FC4CEA070CC0F800C04F6817F4403FF6
:1005000076D0414FD7F800C04CF0010CC7F800C0BE
:100510003F6807F0010700E06AE000973B4F22F0D8
:10052000030C67440297BF684FEA827C4FEA1C784D
:1005300006FA08FC27EA0C07DFF8D4C0604502D1B0
:100540004FF0000C1DE0DFF8CCC0604502D14FF049
:10055000010C16E0DFF8C0C0604502D14FF0020C7C
:100560000FE0DFF8B8C0604502D14FF0030C08E09F
:10057000DFF8ACC0604502D14FF0040C01E04FF051
:10058000050C0CFA08FC4CEA070C029FC7F808C0DF
:10059000D9F80070CC46D1F804809F435FEAC83890
:1005A00000D51F43CCF80070DAF80070D446D1F8BB
:1005B00004809F435FEA883800D51F43CCF8007061
:1005C000DBF80070DC46D1F804809F435FEAC8285E
:1005D00000D51F43CCF80070DEF80070F446D1F867
:1005E00004809F435FEA882800D51F43CCF8007041
:1005F000521C0B689C46D3407FF40AAF05B0BDE89F
:10060000F08F00000004014020380240000001404B
:10061000000002400004024000080240000C0240BA
:10062000001002400AB1816170470904FBE7000035
:10063000014880687047000014000020024881686B
:1006400042681144816070471400002010B50024F6
:10065000032000F0A7F80F2000F008F808B10124EB
:1006600001E000F04DF8204610BD000030B5054611
:100670001F4887B0016841F001010160006806A9C8
:1006800000F00100009001A800F070F90498B0B1EA
:1006900000F08CF9400017494FF08042B0FBF1F1B7
:1006A0001548491E0260416040F2E7320021C0E96E
:1006B0000321816000F09EFC040003D015E000F0EF
:1006C00075F9E8E70C4800F0D9FC04000DD11C20B6
:1006D00000F03AF8102D07D2002229461C2000F025
:1006E00041F80648056000E0012407B0204630BD0F
:1006F0002438024040420F00042300201400002050
:10070000104882B0016841F000410160016801F0C9
:1007100000410091011F0A6842F001020A60096865
:1007200001F001010091016841F080510160006811
:10073000002200F0805000900F21901E02B000F0C7
:1007400011B8000024380240002809DB00F01F0225
:10075000012191404009800000F1E020C0F8001123
:1007600070470000F0B40E4B1B680C46C3F3022325
:10077000C3F10705042D00D90425191D072901D24D
:10078000002300E0DB1E012606FA05F1491E214088
:1007900099409E40761E16403143F0BC01F060BB8C
:1007A0000CED00E0064900F0070208684FF6FF0371
:1007B000184040EA0220034A1043086070470000D6
:1007C0000CED00E00000FA052DE9F0470E460500AB
:1007D00079D0DFF88481D8F8000000F00100B04241
:1007E00014D2012E05D1D8F8001041F00401C8F848
:1007F0000010D8F8001021F001013143C8F80010B2
:10080000D8F8000000F00100B0425CD12878534CC9
:10081000800705D52068A96820F0F0000843206013
:100820002878C0075CD04D496868083902281AD07A
:1008300003281BD0096801281BD08905002966DA26
:10084000216821F0030101432160FFF7F1FE69688F
:10085000074641F28830022914D0032920D001290B
:1008600081462AD038E009688903E7E709688901E9
:10087000E4E78907E2E700BFFFF7DAFEC11B49455D
:1008800001D926E081462068C0F381000228F3D117
:1008900026E000BFFFF7CCFEC11B494501D918E097
:1008A00081462068C0F381000328F3D118E000BF1F
:1008B000FFF7BEFEC11B49450BD82068C0F381007D
:1008C0000128F5D10CE022E0FFF7B2FEC11B49453B
:1008D00002D90320BDE8F087206810F00C0FF3D197
:1008E000D8F80010404601F00101B14211D9012EA3
:1008F00003D1016841F004010160016821F00101A8
:1009000031430160006800F00100B04201D00120D5
:10091000E0E72878400705D52068E96820F4E06022
:10092000084320602878000706D52068296920F44C
:10093000605040EAC100206000F058F82168084A81
:10094000C1F30311515CC8400649086006480068BD
:10095000BDE8F047FFF78ABE003C0240083802407D
:10096000213C000820000020140000200F2202601B
:100970000C4A136803F003034360136803F0F003A9
:100980008360136803F4E063C36012684FF4E063AC
:1009900003EAD20202610448006800F00100086026
:1009A0007047000008380240003C024004480549F6
:1009B00000680968044AC1F30221515CC8407047CD
:1009C0002000002008380240313C00080448054956
:1009D00000680968044AC1F3C221515CC8407047ED
:1009E0002000002008380240313C000870B5154D49
:1009F0002968154801F00C02042A0CD0134C082A6F
:100A00000AD00C2A0AD0281F0068C0F342314FF4E4
:100A10000040491C884070BD204670BD0C4AC1F39F
:100A20008343D35CC1F381522968521CC90302D5A8
:100A3000A3FB040101E0A3FB00010023FFF7C2FBBD
:100A400070BD0000083802400024F400001BB7000D
:100A5000183C00082DE9F84F04007DD0FC480168DF
:100A6000006801F00C0700F480362078F94DC007CB
:100A700041D0082F12D00C2F02D1B6F5803F0DD0F7
:100A80006068012811D008B1052818D0286820F422
:100A900080302860286820F4802009E028688003DE
:100AA00029D560680028D8D025E0286840F4803037
:100AB0002860606890B1FFF7BBFD80460AE02868B7
:100AC00040F480202860F0E7FFF7B2FDA0EB0800BB
:100AD00064287BD828688003F6D50CE0FFF7A8FDD2
:100AE000804605E0FFF7A4FDA0EB08006428F0D8DD
:100AF00028688003F6D42078DFF85CB3DFF85C83E5
:100B000080074FF001094FF0000A35D5042F0AD0B5
:100B10000C2F00D13EB1E068F8B1C8F80090FFF7A3
:100B200087FD06460BE0286880070BD5E0680128A2
:100B300012D107E0FFF77CFD801B0228C9D8286886
:100B40008007F7D5DBF80010226921F4F85141EA5B
:100B50000221CBF800100FE077E1C8F800A0FFF702
:100B600067FD064605E000BFFFF762FD801B022817
:100B7000AFD828688007F7D42078C00674D53FB175
:100B8000A069E0B3C8F82090FFF752FD06464AE09E
:100B90002868800502D5A069002884D0206ADBF887
:100BA00000105E4601F46041884210D900F0E8FE72
:100BB0000028BDD13068216A20F4604008433060CD
:100BC000217F306861F31F6030600FE096E031688C
:100BD00021F4604101433160217F306861F31F607F
:100BE0003060206A00F0CCFE0028A1D1216A4FF4C9
:100BF000004009EB513188409549096800E025E043
:100C0000974AC1F30311515CC84096490860964861
:100C10000068FFF72BFD00286FD125E0FFF708FDE6
:100C2000801B02286AD828688005F7D5DBF80010F9
:100C3000226A21F460411143CBF80010227FDBF8D7
:100C4000001062F31F61CBF800100DE0C8F820A07F
:100C5000FFF7EEFC064604E0FFF7EAFC801B0228E3
:100C60004CD828688005F7D42078804E000722D51C
:100C70007F48616981B1C0F80090FFF7D9FC8346D5
:100C800006E000BFFFF7D4FCA0EB0B00022835D82C
:100C900030688007F6D50EE0C0F800A0FFF7C8FC6A
:100CA000834605E0FFF7C4FCA0EB0B00022825D823
:100CB00030688007F6D4207840076DD56B484FF038
:100CC000000B10380068C0000BD468481038016869
:100CD00041F08051016000684FF0010B00F080503E
:100CE000009064480168C90514D4016841F480711A
:100CF0000160FFF79DFC009008E08DE079E000BF07
:100D0000FFF796FC0099401A642872D85948006889
:100D1000C005F5D5A06801280AD008B1052811D072
:100D2000306820F480703060306820F4806002E029
:100D3000306840F480703060A068A8B1FFF778FC9C
:100D400000900DE0306840F480603060F0E700BF54
:100D5000FFF76EFC0099411A41F2883081425AD85F
:100D600030688005F4D50EE0FFF762FC009007E0E4
:100D7000FFF75EFC0099411A41F2883081424AD85F
:100D800030688005F4D4BBF1000F05D03748103827
:100D9000016821F080510160606A58B30C2F41D086
:100DA0000228504605D0C8F86000FFF741FC044611
:100DB00034E04746C8F86000FFF73AFC064604E016
:100DC000FFF736FC801B022825D828688001F7D45D
:100DD000D4E90A1001431E48226B036823F47D0303
:100DE0001A4311430160C7F86090FFF721FC0446E5
:100DF00007E010E040E000BFFFF71AFC001B0228EC
:100E000009D828688001F7D536E000BFFFF710FC4D
:100E1000001B022802D90320BDE8F88F2868800152
:100E2000F4D429E00128F7D009480068A26A00F448
:100E30008031914209D1E26A00F47011914204D1EB
:100E4000216B00F44000884216D00120E4E7000046
:100E5000083802400038024004380240000047428F
:100E6000213C0008200000201400002034380240FB
:100E700080064742007000400020CDE770B50400B6
:100E800009D0606A002540B125616561A56294F8CA
:100E9000510040B10CE0012070BD6068B0F5827F68
:100EA000F4D0E561F2E784F85050204600F03AF8BB
:100EB000022084F851002068016821F0400101609F
:100EC000A088218900F4827001F404410843A189BB
:100ED00001F400610843217C01F002010843217DF7
:100EE00001F001010843218B01F400710843217FC7
:100EF00001F03801084394F8201001F08001084304
:100F0000218D01F40051084321680860A069042183
:100F100001EA1040216848606565012084F85100AD
:100F2000002070BD10B586B0044614216846FFF756
:100F300093F913492068884220D11248016841F48E
:100F400080510160006800F4805005900D48001F3A
:100F5000016841F0020101600068694600F002008A
:100F6000059038200090022001900020029003207C
:100F70000390052004900448FFF73AFA06B010BD2C
:100F800000300140203802400004024070B590F863
:100F90003820012A26D0012480F83840022280F827
:100FA000392003685A689D6822F070060A68324347
:100FB0005A600268B2F1804F08D00B4B9A4205D0BC
:100FC0000A4B9A4202D00A4B9A4204D1496825F052
:100FD00080031943916080F83940002180F838106F
:100FE000084670BD022070BD0004004000080040AB
:100FF0000008014010B5040003D094F8390010B186
:1010000007E0012010BD002084F83800204600F0E1
:1010100017F8022084F83900211D206800F04AFDED
:10102000012084F83E0084F83A0084F83B0084F8FC
:101030003C0084F83D0084F83900002010BD000019
:1010400008B500680B49884212D10B48016841F08D
:10105000020101600068002200F0020000900121FE
:101060001D20FFF77FFBBDE808401D20FFF76CBB8C
:1010700008BD0000000400402438024090F83910F8
:10108000012901D001207047022180F83910016840
:10109000CA6842F00102CA600068B0F1804F08D00F
:1010A0000949884205D00949884202D00849884246
:1010B00004D1816801F00701062903D0016841F0DD
:1010C000010101600020704700040040000800405A
:1010D0000008014070B5044690F83800012817D088
:1010E000012584F83850022084F83900206882688D
:1010F00022F0770222F47F4282600868502830D0C4
:101100000DDC20284DD005DC98B310283BD148E0F9
:10111000022070BD302844D0402834D139E0602806
:1011200028D0702806D0B0F5805F2CD0B0F5005FD5
:1011300029D10AE0CB68D1E90121206800F0F4FC54
:101140002068816841F0770109E0CB68D1E901218D
:10115000206800F0E9FC2068816841F480418160EA
:1011600011E0CA684968206800F0F0FC502120684E
:1011700007E016E0CA684968206800F0F8FC6021C2
:10118000206800F0DBFC84F83950002084F8380037
:1011900070BDCA684968206800F0D8FC402120680A
:1011A000EFE7226801461046EBE7704770B504464A
:1011B000006801694FF00005C943890715D4C1686B
:1011C000C943890711D4E91E0161012020762068F6
:1011D00080698007204602D0FFF7E7FF04E000F0B7
:1011E00078F8204600F076F8257620680169C94332
:1011F000490717D4C168C943490713D46FF00401E4
:101200000161022020762068806910F4407F20462A
:1012100002D0FFF7CAFF04E000F05BF8204600F0C0
:1012200059F8257620680169C943090716D4C168B1
:10123000C943090712D46FF0080101610420207628
:101240002068C0698007204602D0FFF7AEFF04E0A7
:1012500000F03FF8204600F03DF82576206801694F
:10126000C943C90617D4C168C943C90613D46FF06E
:1012700010010161082020762068C06910F4407FC9
:10128000204602D0FFF791FF04E000F022F820464C
:1012900000F020F8257620680169C943C90708D104
:1012A000C168C943C90704D1891E0161204600F005
:1012B00013F820680169C943490609D4C168C943C4
:1012C000490605D46FF040010161204600F01AF88C
:1012D00070BD70477047000010B504460068B0F15B
:1012E000804F01D1FFF7AAF904492068884203D151
:1012F00003480168491C016010BD00000004004063
:10130000100000207047704770470000F8B5026871
:1013100004461068D168536910F00F0F4FF00005B4
:1013200053D003F0010601F4907737435FD0C20732
:1013300005D0CA0503D5226C42F00102226442079F
:1013400005D5DA0703D0226C42F00202226482073C
:1013500005D5DA0703D0226C42F0040222640207AA
:1013600007D501F02002324303D0226C42F008027C
:101370002264226C002A34D0800604D5880602D567
:10138000204600F026FC20684069216CC0F38010E4
:10139000090700D430B3204600F003FC20684169FF
:1013A00049061BD5416921F040014161A06BA8B1FC
:1013B00058494163A06BFEF7E7FF002811D0A06BEE
:1013C000416B01B0BDE8F040084783060FD58B069E
:1013D0000DD52046BDE8F84000F0FBBB2046FFF7E6
:1013E00093FFF8BD2046FFF78FFF2564F8BD266BFD
:1013F0002023012E52D1C60650D5CE064ED51068F8
:1014000050680090506940062AD5A16B0868406872
:101410000004000CEAD0A68D8642E7D9E0858869F1
:10142000202818D0D06820F48070D06020684169EE
:1014300021F0010141612068416921F040014161D1
:1014400084F83E3025632068C16821F01001C16036
:10145000A06BFEF774FFA08DE18D401A81B219E0F8
:10146000A08DE18D401A81B2E08D0028BED0002908
:10147000BCD0D06820F49070D0602068426922F01F
:101480000102426184F83E3025632068C26822F080
:101490001002C2602046FFF736FFF8BD05062BD5C7
:1014A0000D0629D594F83D002128F6D1A068B0F5A5
:1014B000805F01D12069B0B1206A411C216221689E
:1014C00000784860E08C401E0004000CE084E4D109
:1014D0002068C16821F08001C1602068C16841F0C6
:1014E0004001C160F8BD206A0088C0F30800506068
:1014F000206A801C2062E5E74006F3D54806F1D556
:10150000D168204621F04001D16084F83D3000F0E0
:10151000CEF8F8BD931B000870B5040004D094F811
:101520003D00002510B106E0012070BD84F83C505C
:10153000204600F023F8242084F83D002068C1688C
:1015400021F40051C160204600F09EFB2068016933
:1015500021F4904101612068416921F02A01416133
:101560002068C16841F40051C1602564202084F8DE
:101570003D0084F83E00002070BD000010B586B02C
:10158000044614216846FEF767FE18492068884221
:1015900029D11748016841F480410160006800F4D6
:1015A000804005901248001F016841F00101016070
:1015B0000068694600F0010005904FF4C06000909B
:1015C0000220019001200290032003900720049044
:1015D0000848FEF70DFF002206212520FFF7C2F87C
:1015E0002520FFF7B1F806B010BD0000003801401B
:1015F0002038024000000240704700002DE9F84307
:10160000044690F83D001F4616460D4620284CD152
:10161000C5B1BEB194F83C00012846D0012084F841
:101620003C004FF00008C4F84080212084F83D00C1
:10163000FEF7FEFFA6848146E684A068B0F5805FD1
:1016400003D004E00120BDE8F883206928B12E46CC
:101650005FF0000584F83C800EE00026FAE7802168
:10166000204600F09FFBA0B9AEB116F8010B21682F
:101670004860E08C401EE084E08C4B464FF0000256
:1016800000970028EBD14FF04001204600F08AFB84
:1016900030B10320D7E735F8020BC0F30800E6E7C6
:1016A000202084F83D000020CDE70220CBE77047E2
:1016B000FEE70000FEB501251B48009500F1600122
:1016C000CDE901106E020023324618A1194802F03C
:1016D000C1F8194C0023324620601848009500F1EB
:1016E0006001CDE9011016A1174802F0B3F860605F
:1016F0001648009500F16001CDE901100023324643
:1017000013A1154802F0A6F8144AA06002F1600186
:1017100002208DE807000023324611A1124802F092
:1017200099F8E060FEBD0000A800002073656E73AC
:101730006F7231005D2E00080000002008090020B3
:1017400073656E736F723200892E00086811002075
:1017500073656E736F723300B52E0008C8190020D0
:10176000637075696E666F00412B00082DE9F041CA
:1017700086B014216846FEF76FFD3F48016841F0CE
:1017800004010160016801F004010591016841F064
:1017900020010160016801F020010591016841F01C
:1017A00002010160016801F002010591016841F048
:1017B000010101600068314E00F001004FF48057D4
:1017C0000590002239463046FEF72CFFDFF8B08046
:1017D0000022B1154046FEF725FF0122D103404605
:1017E000FEF720FF78004FF48815CDE900050024AE
:1017F000694602942348FEF7FBFD4320CDE900052E
:10180000694602943046FEF7F3FD0125CDE90075E7
:101810000327CDE9024769463046FEF7E9FD4FF45C
:101820000140CDE90005CDE9024769464046FEF793
:10183000DFFD062100220846FEF794FF0620FEF792
:1018400083FF002206210720FEF78CFF0720FEF70A
:101850007BFF002206211720FEF784FF1720FEF7EA
:1018600073FF002206212820FEF77CFF2820FEF7C8
:101870006BFF06B0BDE8F0811C3802400004024056
:101880000000024000080240104810B50E490160F7
:101890004FF48271416000218160C1604FF4007299
:1018A0000161C0E905121822C0E907214162816285
:1018B0000A21C162FFF7E2FA002803D0BDE8104018
:1018C000FEF73BBD10BD0000003001402822002083
:1018D00030B587B000251A4C009501950295039507
:1018E00004951648059520600520C4E901051320DC
:1018F000C4E9030520466561FFF77CFB08B1FEF7EC
:101900001CFD4FF48050009069460D48FFF7E2FB44
:1019100008B1FEF712FD049504A909480595FFF7E3
:1019200035FB08B1FEF709FD21686FF00100086181
:101930000348FFF7A3FB07B030BD000000040040E0
:10194000802200200C4810B50A4901604FF4E131B3
:101950004160002181600C22C160C0E904128161F4
:10196000C161FFF7D9FD002803D0BDE81040FEF7A4
:10197000E4BC10BD00380140C0220020FEE7FEE7B5
:1019800038B51C49002309681B4A11F0F00F23D118
:1019900018491C310C68E500184C03D5216801F486
:1019A000C0540EE00D6845F080550D600D6805F0DF
:1019B0008055009524680D6804F4C05425F08055C6
:1019C0000D60B4F5C05F07D1B0F5404F04D1106889
:1019D000012340F004001060106820F0010018435B
:1019E0001060106800F00100984201D0012038BD5D
:1019F000002038BD08380240003C02400070004022
:101A000010B5502080F31188BFF34F8FBFF36F8F55
:101A100001F060FF18B104494FF0805008600020C9
:101A200080F3118810BD000004ED00E010B592B005
:101A300034216846FEF710FC14210DA8FEF70CFCBB
:101A40001448016821F4C05141F400610160012093
:101A50000090019002200990C0030024CDE90A04FF
:101A6000C0010C906846FEF7F5FF08B172B6FEE7BC
:101A70000F200D900320CDE90E04109400210DA835
:101A80001194FEF7A1FE002801D072B6FEE712B055
:101A900010BD000000700040704700000148FFF7D3
:101AA00085BB0000042300200148FFF77FBB000036
:101AB0008022002070B502684FF08046154B164C0E
:101AC000B04203D0984201D0A04205D122F0700567
:101AD0004A682A43B0420CD098420AD0A04208D0AB
:101AE0000E4B984205D00E4B984202D00D4B9842B7
:101AF00003D122F44073CA681A430B6922F08002B2
:101B00001A4302608A68C2620968816201214161E8
:101B100070BD0000000400400008004000080140C3
:101B2000000C01400010014010B5846842EA032215
:101B300024F47F440A432243826010BD826822F06D
:101B400070020A4342F007018160704710B5036AD2
:101B5000046A24F001040462846924F0F00444EA75
:101B6000021423F00A020A438461026210BD10B518
:101B7000036A23F0100303628369046A23F4704349
:101B800043EA023224F0A00343EA011182610162B8
:101B900010BD10B5406A0021C185C184FFF7B4FBB8
:101BA00010BD0168CA6822F49072CA6001684A696F
:101BB00022F001024A61016B012904D10168CA685F
:101BC00022F01002CA60202180F83E10002101633B
:101BD000704708B590F83E10222901D0022008BDB8
:101BE00082684FF480539A4201D1016921B1816A20
:101BF0009A421BD04AB10AE00268816A5268C2F375
:101C000008020A80816A891C08E0026972B10268D0
:101C1000526802F07F020A70816A491C8162C18D9C
:101C2000491E0904090CC18503D019E002685268F5
:101C3000F1E70168CA6822F02002CA600168CA6838
:101C400022F48072CA6001684A6922F001024A6186
:101C5000202180F83E10016B012903D0FFF7CCFC56
:101C6000002008BD002101630168CA6822F010024B
:101C7000CA6001680A68D20602D50A6849680091FC
:101C8000818DFFF740FBEBE72DE9F041044600684A
:101C90000169E26821F44051114301612169A068A2
:101CA000E26908436169114322680843D16849F237
:101CB0000C6399430143D16020684169A26921F412
:101CC00040711143416136492068884202D1FEF7D4
:101CD0007DFE01E0FEF76AFE0246E36964203221E0
:101CE000B3F5004F02EBC20303EB021362682BD083
:101CF0009200B3FBF2F5B5FBF0F5B3FBF2F66FF033
:101D000018077D4306EB8505B3FBF2F601EB0515DD
:101D1000B5FBF0F5B6FBF0F605F0F00505EB0615A2
:101D2000B3FBF2F6B3FBF2F2B2FBF0F27A4306EB4E
:101D3000820201EB0211B1FBF0F000F00F0021680C
:101D400028448860BDE8F0815200B3FBF2F6B6FB90
:101D5000F0F6B3FBF2F7B3FBF2F56FF0180C06FBED
:101D60000CF607EB860601EBC606B5FBF0F5B6FBF5
:101D7000F0F62D0106F0F80605EB4605B3FBF2F68A
:101D8000B3FBF2F2B2FBF0F202FB0CF206EB8202C2
:101D900001EBC201B1FBF0F000F00700CFE700005B
:101DA000003801402DE9F041984617460E4604469A
:101DB000069D1DE0681C1BD02DB1FEF739FCA0EB81
:101DC0000800A84214D92068C16821F4D071C1600C
:101DD0002068416921F001014161202084F83D0023
:101DE00084F83E00002084F83C000320BDE8F08128
:101DF0002068006836EA000004D00020B842D9D03C
:101E00000020F3E70120F9E70148FFF77FBA00005F
:101E1000C0220020FEE700000FB4054B10B503A957
:101E2000044A029800F03CF810BC5DF814FB000076
:101E3000D9200008A40000200FB4084B10B504A955
:101E400002AA039800F02CF8044602A9002000F032
:101E500003F9204610BC5DF814FB0000592000086F
:101E60000907090E002804DB00F1E02080F80014C7
:101E7000704700F00F0000F1E02080F8141D70475B
:101E800002E008C8121F08C1002AFAD17047704743
:101E9000002001E001C1121F002AFBD170470000A1
:101EA0002DE9FF4F8BB09A460F460546002606E007
:101EB00025280BD052460D9990476D1C761C28782A
:101EC0000028F5D10FB03046BDE8F08F0024A046C1
:101ED0000122604900E0044315F8013F203B02FA6B
:101EE00003F00842F7D128782E2817D115F8010FF2
:101EF00044F004042A280ED06FF02F022878A0F1B5
:101F0000300109290AD808EB880102EB410100EBF6
:101F100001086D1CF2E757F8048B6D1C28786928BE
:101F20003ED006DC0028CDD063280BD0642804D135
:101F300036E0732810D075284BD052460D99904743
:101F4000761C85E017F8040B8DF8000000208DF852
:101F50000100E946012003E057F8049B4FF0FF30F1
:101F600061074FF0000401D40AE0641C44450DDA17
:101F70008442FADB19F804100029F6D106E0641C4B
:101F80008442FCDB19F804100029F8D1264404E04F
:101F900019F8010B52460D999047641EF8D257E08C
:101FA00001CF4FF00A0B002802DA40422D2102E057
:101FB000210504D52B218DF82410012103E0E10730
:101FC00005D02021F7E70DF1200908910CE0002150
:101FD000F9E701CF4FF00A0BF9E75946FEF757F939
:101FE00001F1300209F8012D0028F6D1ADEB09000E
:101FF00000F1200B600701D44FF00108D84502DD45
:10200000A8EB0B0000E000208046002406E009A8B1
:102010005246005D0D999047641C761C08988442D6
:10202000F5DB04E0302052460D999047761CB8F15C
:102030000001A8F10108F5DC05E019F8010B524692
:102040000D999047761CBBF10001ABF1010BF4DC5C
:102050006D1C34E7092801000A68531C0B601070DE
:102060007047000001490020086070471000002000
:1020700070B5040005D0164E3068844209D10020A6
:1020800070BD502080F31188BFF34F8FBFF36F8F67
:10209000FEE700F00FFE656900F02CFE70688542D7
:1020A00002D0B068854201D1022070BD0948854246
:1020B00004D1A06A0028F7D1032070BD0548143868
:1020C000854202D00DB1012070BD042070BD00001A
:1020D000240000203428002013B54FF0FF330122E4
:1020E00069460248FFF78AFA00981CBDC02200200A
:1020F000014800687047000010000020FEF7A6FAB3
:10210000FFF794FCFFF732FBFFF71CFCFFF7BCFB6B
:10211000FFF7DEFB00F006F8FFF7CCFA00F01EF840
:10212000FEE70000EFF3058058B9EFF3108040B9E7
:1021300009490868022801D030B109E0EFF31180A5
:1021400030B16FF005007047012008600020704733
:102150004FF0FF30704700007C00002010B5EFF317
:10216000058060B9EFF3108048B90B490868022870
:1021700002D0012806D00BE0EFF3118040B16FF0E0
:10218000050010BD0220086001F028F8002010BDF5
:102190004FF0FF3010BD00007C0000202DE9F04121
:1021A000134C0F46054666692068001D00F04AFC86
:1021B000681C07D137B12168BDE8F0410D48091D01
:1021C00000F06CBD20683544B5424560216805D2F9
:1021D000A068BDE8F041091D00F048BD6068091D18
:1021E00000F044FD206B854200D22563BDE8F081FC
:1021F00024000020342800202DE9F041054600F09D
:1022000059FD2D4C2069401C206120682B4F10B1D6
:10221000E06930B32BE025602069012827D1002632
:1022200006EB860007EB800000F012FD761C382ECE
:10223000F6D3234800F00CFD2148143000F008FDCF
:102240001F48283000F004FD1D483C3000F000FD20
:102250001B48503000F0FCFC194860601430A0604E
:1022600005E02068E96AC06A884200D82560E06A13
:10227000401CE0626864E86AA169884200D9A061F4
:1022800000EB800007EB8000291D00F007FD00F047
:1022900031FDE06900280CD02068E96AC06A8842F4
:1022A00007D208494FF080500860BFF34F8FBFF34B
:1022B0006F8FBDE8F08100002400002084230020FF
:1022C000E427002004ED00E038B500F0F3FC104CEA
:1022D000A068C8B90F4800F0BBFC0E48143000F0ED
:1022E000B7FC0C482060143060600A4B0020283393
:1022F000009003F1500210210A2001F04FF8A06075
:1023000010B105A100F074FDBDE8384000F0F2BC4A
:102310006800002048280020546D72510000000021
:1023200030B4026C0B46002A0BD0C1681144C16066
:102330004468A14201D30168C16030BC1846FDF772
:1023400072BF30BC70472DE9F041856B17460446DB
:102350000026026C82B1C7B1E068FDF764FFE16856
:10236000206C091AE1602268914202D26168081A61
:10237000E060022F16D017E02068A8B9606801F06D
:102380000DFB0646002060600EE0A068FDF74BFFE5
:10239000216CA0680844A0606168884204D320686A
:1023A000A06001E005B16D1E6D1CA5633046BDE85F
:1023B000F08110B5044690F85D0058B101280CD0AA
:1023C00002280FD0502080F31188BFF34F8FBFF346
:1023D0006F8FFEE7206B00F0A1FC2046BDE81040A7
:1023E00000F09CBC10BD000010484FF44061420753
:1023F00006D0C01D0D4920F00700411AC1F540610B
:102400000B4A00230144C2E900030839103A21F0C5
:10241000070111604B600B600B1AC0E90013936059
:102420004FF000405360D06070470000202E002025
:10243000900000200C4E0D4C12E000BF00F03AFC62
:10244000F068C568281D00F0FDFA2069401E206173
:10245000E068401EE06000F04DFC2846FFF7A9FF51
:10246000E0680028FCD0E9E72028002024000020B4
:1024700070B51D46049C51B1C4F80020C4E90F0199
:102480000121204600F0BEFF84F84C5070BD24604E
:10249000F4E72DE9F0470E46DDE909841746824648
:1024A00091009946089DA522206BFDF7CEFE6FF0A6
:1024B0000301206B01EB8701084420F00707780730
:1024C00007D0502080F31188BFF34F8FBFF36F8F79
:1024D000FEE72218315C82F83410315C11B1401CE7
:1024E0001028F6D3002684F84360382D00D3372512
:1024F000E562C4E91356201D00F0B5FB04F1180095
:1025000000F0B1FB2461C5F138006462A06166652A
:10251000A66584F85C604A465146384600F080FA69
:102520002060B8F1000F01D0C8F80040BDE8F08786
:1025300030B5114900E011460A688242FBD34B686E
:102540005C18844203D140681844486008464368D8
:102550001C18944209D1084C103C2468A24209D0AE
:1025600052681A4442600A6812680260814200D0D0
:10257000086030BD0460F9E79000002070B50024C9
:1025800041600B4D0061914206D8D11A8269914297
:1025900006D2011D686807E09A4203D2994201D32E
:1025A000012403E0011D286800F060FB204670BD97
:1025B0006800002010B5044600F07CFBA06B28B139
:1025C0005FF0000400F096FB204610BD0124F9E7FF
:1025D0002DE9F0478146086892460C46002600B374
:1025E000606804F1080540686060A84201D1416854
:1025F00061606068D0F80C80606840686060A842E4
:1026000001D141686160606806EBC60109EB810198
:10261000C76853460122384600F0A8FC761C47459F
:10262000EAD13046BDE8F08730B589B0304D55E08D
:102630000498002806DADDE90601059A9047049817
:1026400000284BDB069C606910B1201D00F0FAF9F0
:1026500002A800F0B9F8024604980A283ED2DFE842
:1026600000F00505053D263705053D260598A169BD
:10267000034601442046FFF781FF00B3616A20460C
:102680008847E069012829D1002000900598A169B8
:10269000002342181946204601F08AFA78B95020E2
:1026A00080F31188BFF34F8FBFF36F8FFEE705985C
:1026B000A06128B1811813462046FFF75FFF0DE0A7
:1026C000502080F31188BFF34F8FBFF36F8FFEE769
:1026D00094F82C0010B9204600F020FB002204A939
:1026E000A86800F0E1FF0028A2D109B030BD0000C9
:1026F000680000202DE9FC410F46054600F0B4FDBE
:1027000001A800F061F80446019818B101F0BEF983
:10271000BDE8FC81224EAFB170680068A8B3002705
:10272000291B3A46B06800F077FB01F0AFF90028AA
:10273000EED11C494FF080500860BFF34F8FBFF3BC
:102740006F8FE5E7A542EBD801F0A0F93068274686
:10275000C068C468201D00F075F9E069012810D137
:10276000A0692B4641193A462046FFF707FF40B1C2
:1027700000200346014600902A46204601F018FA40
:1027800020B1616A20468847C2E707E0502080F305
:102790001188BFF34F8FBFF36F8FFEE70127BFE7AD
:1027A0006800002004ED00E006484168096829B18E
:1027B0004168C968C9684968016370474FF0FF31D3
:1027C000FAE700002400002070B5054601F07CF80F
:1027D000064E04463069844203D200F009F8012015
:1027E00000E0002028602046346170BD68000020B1
:1027F000F8B5194D1FE0C068C4680668201D00F0D8
:1028000021F9616A20468847E069012813D1A0694F
:102810003044B04206D924616060211D286800F070
:1028200025FA08E000200346014600903246204683
:1028300001F0BEF938B1286801680029DBD1696868
:10284000C5E90010F8BD502080F31188BFF34F8F09
:10285000BFF36F8FFEE7000068000020002101E059
:10286000401C491C0278A52AFAD0C1F38F0070479A
:1028700008484068401C4FF0500080F3118804D095
:10288000BFF34F8FBFF36F8FFEE7BFF34F8FBFF3E1
:102890006F8FFEE798000020074C2068016841B167
:1028A000C0680021D0F80000FFF724FFFFF7BCFE4E
:1028B000F3E701210020F7E7680000202DE9F0414F
:1028C000044600F0F7F994F9455004F1240609E0B4
:1028D000606A48B1304601F0A1F808B100F044FC4C
:1028E0006D1E6DB2002DF3DC4FF0FF3684F84560AD
:1028F00000F000FA00F0DEF994F9445004F11007FA
:1029000009E0206948B1384601F088F808B100F0C4
:102910002BFC6D1E6DB2002DF3DC84F84460BDE825
:10292000F04100F0E7B910B50446FDF7A7FC2046DA
:10293000FDF79DFC202101E02154401C0F28FBD312
:1029400000212154204410BD2DE9F0410546002707
:1029500000F08AFC314E306808B9FFF745FDF06899
:1029600005424BD1C5B3083568070ED005F0070006
:10297000C0F108000544680707D0502080F3118893
:10298000BFF34F8FBFF36F8FFEE72DB370688542A3
:1029900034D82248103001460C6801E020460C462D
:1029A0006168A94202D221680029F7D131688C42BE
:1029B00024D007682168016060680837411B10292E
:1029C0000FD96019420708D0502080F31188BFF357
:1029D0004F8FBFF36F8FFEE710E041606560FFF738
:1029E000A7FD61687068401A7060B268904200D2BA
:1029F000B060F06801430020C4E9000101F046F82E
:102A0000780707D0502080F31188BFF34F8FBFF3B2
:102A10006F8FFEE73846BDE8F0810000800000209F
:102A200010B5031F4FF080741C601B1F21F00101C3
:102A30001960191F024B0B60143940380A6010BD31
:102A400071280008D0E9013201699A60D0E90123B8
:102A50005A604A68824201D182684A60002202615B
:102A60000868401E08600868704700002DE9F047BC
:102A700017460A4605460024382600F0F5FBDFF825
:102A80008C80D8F8100082423BD3DFF88490761E09
:102A900006EB860104EBC40009EB810105EB800025
:102AA0000122FFF795FD0444002EF0D104EBC40091
:102AB00005EB800002224646D8F80410FFF788FD97
:102AC000044404EBC40005EB80000222B168FFF768
:102AD0007FFD044404EBC40005EB800004220D4993
:102AE000FFF776FD04440B4904EBC40005EB8000BE
:102AF00003221431FFF76CFD044417B1FFF7F8FA15
:102B0000386000F0C3FF2046BDE8F08724000020B5
:102B10008423002020280020034B036003F1600081
:102B2000086080201060704760290020034B03601C
:102B300003F160000860802010607047C02B002007
:102B400008B54FF4FA5600F0BFFE4FF4C875009078
:102B50002846FFF7F9FE04463146684600F0C0F902
:102B600029462046FDF778FB204600F09DFA0FA08D
:102B7000FFF752F91BA0FFF74FF9214627A0FFF7F7
:102B80004BF90AA0FFF748F929462046FDF764FBF8
:102B9000204600F027FA22A0FFF73EF921461FA0A9
:102BA000FFF73AF901A0FFF737F9D5E72D2D2D2DC5
:102BB0002D2D2D2D2D2D2D2D2D2D2D2D2D2D2D2D45
:102BC0002D2D2D2D2D2D2D2D2D2D2D2D2D2D2D2D35
:102BD0002D2D2D2D2D2D2D2D2D2D2D2D2D2D0D0A68
:102BE000000000004E616D65202020202020202064
:102BF0002020202020202020202053746174757311
:102C000020205072696F202020537461636B202054
:102C10002020205365710D0A00000000257300007C
:102C20004E616D65202020202020202020202020A3
:102C3000202020202020436F756E7420202020202B
:102C4000202020202055736167650D0A00000000D8
:102C500000F108014FF0FF32C0E90112C1600161CB
:102C600000210160704700210161704730B50B6899
:102C70005A1C02D000F1080202E0026904E0224678
:102C8000546825689D42FAD953684B6099608A6000
:102C9000516008610168491C016030BD42684A60AA
:102CA00093688B6093685960916008610168491C62
:102CB00001607047502080F31188BFF34F8FBFF33E
:102CC0006F8F0A494868401C486001280CD10848A9
:102CD000006810F0FF0F07D0502080F31188BFF379
:102CE0004F8FBFF36F8FFEE7704700009800002002
:102CF00004ED00E00849486828B1401E486001D151
:102D000080F311887047502080F31188BFF34F8FF4
:102D1000BFF36F8FFEE700009800002070B5002819
:102D200027D0144DA0F108046168E868014207D17A
:102D3000502080F31188BFF34F8FBFF36F8FFEE7F2
:102D400022683AB1502080F31188BFF34F8FBFF350
:102D50006F8FFEE78143616000F086FA6068696802
:102D6000084468602046FFF7E3FBBDE8704000F0D0
:102D70008DBE70BD800000204FF0E0200021016179
:102D8000816105494FF47A720968B1FBF2F1491E7D
:102D900041610721016170472000002010B5FDF757
:102DA000FBF9114910280ED300F1E02090F8F00350
:102DB0000A78904207D2502080F31188BFF34F8FDA
:102DC000BFF36F8FFEE709480068896800F4E06090
:102DD000884207D9502080F31188BFF34F8FBFF38B
:102DE0006F8FFEE710BD0000980000200CED00E0A2
:102DF00010B5084B002200BF53F832401CB1521CE2
:102E0000082AF9D310BD43F8321003EBC201486021
:102E100010BD00004423002070B515460E46044640
:102E2000FFF748FF94F944100020491C01D184F8B1
:102E3000440094F94510491C01D184F84500FFF77E
:102E400059FFA06B28B92A46314604F1240000F04E
:102E5000A9F92046BDE87040FFF730BD08B54FF432
:102E60007A7400F031FD00902146684600F038F891
:102E700000BF02A0FEF7D0FFF6E7000073656E7397
:102E80006F72312E0D0A000008B54FF4FA6400F09D
:102E90001BFD00902146684600F022F800BF02A00A
:102EA000FEF7BAFFF6E7000073656E736F72322E9D
:102EB0000D0A000008B54FF47A6400F005FD00909B
:102EC0002146684600F00CF800BF02A0FEF7A4FF00
:102ED000F6E7000073656E736F72332E0D0A000003
:102EE00070B50D4604000BD095B11E4A906BB8B179
:102EF000502080F31188BFF34F8FBFF36F8FFEE731
:102F0000502080F31188BFF34F8FBFF36F8FFEE720
:102F1000502080F31188BFF34F8FBFF36F8FFEE710
:102F200000F0A2F9526923685919934204D98B42DF
:102F30000AD9914202D807E08B42FAD9881A216057
:102F40000021FFF72BF900E0216000F09FFD002831
:102F500007D105494FF080500860BFF34F8FBFF392
:102F60006F8F70BD2400002004ED00E02DE9F041DA
:102F70000C461B491646B8B14FEA000505F134006E
:102F8000C4E90050E86A2061286BE061686CA060C9
:102F9000E86C6061686D0027A061052B12D008689D
:102FA000854203D1277311E00D68E7E72373032BF4
:102FB0000CD100F059F9A86A08B10220207300F082
:102FC00065FD03E02846FFF753F820732EB1286B08
:102FD000FFF744FC2084BDE8F0812784FBE7000074
:102FE0002400002070B586B00025064605702348F1
:102FF00001690091006900EBC0008000FFF7A4FCAC
:10300000040038D003AA0099FFF730FD0090039820
:103010006421B0FBF1F0039050B32846019524E001
:1030200000EBC00004EB8000039A8169B1FBF2F56C
:1030300041683046FFF777FC0646019800EBC00078
:1030400004EB800082692DB12B460DA13046FEF7BE
:10305000F3FE03E00DA13046FEF7EEFE3046FDF72D
:1030600006F906440198401C019000998842D7D384
:103070002046FFF753FE06B070BD0000240000207C
:103080000925750909257525250D0A0009257509E4
:10309000093C3125250D0A0002498A6A0260496906
:1030A000416070472400002070B586B000240646B9
:1030B0000470284801690291006900EBC00080009B
:1030C000FFF742FC050042D000220299FFF7CEFC38
:1030D00002900494204631E000EBC00005EB800034
:1030E000017B05290ED2DFE801F0030507090B007B
:1030F000582408E0522406E0422404E0532402E06D
:10310000442400E0002441683046FFF70CFC0646EA
:10311000049800EBC00005EB80008268018CCDE9CB
:103120000012036922460CA13046FEF785FE3046A8
:10313000FDF79DF806440498401C049002998842CB
:10314000CAD306B02846BDE87040FFF7E7BD06B019
:1031500070BD00002400002009256309257509259C
:10316000750925750D0A0000014901204862704764
:103170002400002010B50C4650B1094909681831E7
:10318000FFF774FD2046BDE810400121FFF706B8A7
:10319000502080F31188BFF34F8FBFF36F8FFEE78E
:1031A0002400002070B514460D4668B10A4909682C
:1031B0001831FFF773FD0CB14FF0FF35214628465B
:1031C000BDE87040FEF7EABF502080F31188BFF3DE
:1031D0004F8FBFF36F8FFEE72400002030B587B01C
:1031E0000024039405AA04A903A80494FFF794FCFF
:1031F000DDE903010094CDE90110002316A1184870
:10320000059A00F027FB174D0028686321D000F0D5
:103210009FFC012809D0401C1BD1502080F311884D
:10322000BFF34F8FBFF36F8FFEE7502080F31188FD
:10323000BFF34F8FBFF36F8F4FF0FF302863012034
:10324000E8616C61FEF70EFF07B0BDE8304000F0AA
:1032500051B807B030BD000049444C4500000000A3
:1032600035240008240000200248816B491C81633A
:10327000704700002400002010B51C4CA06B10B15A
:103280000120606210BD00206062FEF731FF206403
:10329000E26B904204D92168821A4B6D1A444A6548
:1032A000E063A069124901E0B8B1401E00EB800262
:1032B00051F82220002AF7D000EB800201EB8201B6
:1032C00001F108034A6852684A609A4201D1526883
:1032D0004A60D1682160A06110BD502080F3118840
:1032E000BFF34F8FBFF36F8FFEE700002400002075
:1032F000842300201CB5264908780190FF2008701F
:1033000008788DF800009DF800009DF8002000F07E
:10331000F000904207D0502080F31188BFF34F8F08
:10332000BFF36F8FFEE79DF800001A4B00F05000CE
:1033300018700720986005E09DF8002052008DF875
:103340000020401E9DF800201206F5D49860032846
:1033500007D0502080F31188BFF34F8FBFF36F8FDA
:10336000FEE74FF440709860019808700A480168C1
:1033700041F470010160016841F070410160FFF7A4
:10338000FBFC00205860FCF7D1FE00201CBD0000B3
:1033900000E400E09800002020ED00E038B5049D36
:1033A00018B153B1CAB181B120E0502080F3118827
:1033B000BFF34F8FBFF36F8FFEE7502080F311886C
:1033C000BFF34F8FBFF36F8FFEE7502080F311885C
:1033D000BFF34F8FBFF36F8FFEE739B1502080F3FB
:1033E0001188BFF34F8FBFF36F8FFEE750241C4649
:1033F000012384F846302B460094FFF739F8204625
:1034000038BD000070B50D46040025D0FFF752FC12
:10341000D4E90F20216802FB001161600021A16343
:103420002168A1600A46D4E90F01401E00FB01217A
:10343000E16021464FF0FF3001F8440F487004F17D
:1034400010008DB1FFF704FC04F12400FFF700FC2D
:10345000FFF750FC012070BD502080F31188BFF3AE
:103460004F8FBFF36F8FFEE721690029F0D000F086
:10347000D5FA0028ECD004494FF080500860BFF323
:103480004F8FBFF36F8FE3E704ED00E02DE9FF47B7
:1034900082B01D468A464FF00008040003D0BAF1FE
:1034A000000F08D011E0502080F31188BFF34F8F38
:1034B000BFF36F8FFEE7206C38B1502080F3118886
:1034C000BFF34F8FBFF36F8FFEE7022D0AD1E06B82
:1034D000012807D0502080F31188BFF34F8FBFF32E
:1034E0006F8FFEE700F0E2F93F4F4FF000094FF019
:1034F000805648B9049838B1502080F31188BFF342
:103500004F8FBFF36F8FFEE7FFF7D4FBA06BE16B2C
:10351000884207D3022D05D00498D0B1B8F1000F2E
:103520001AD01EE02A4651462046FEF70CFF616A7B
:1035300019B104F1240000F071FA20B13E60BFF32C
:103540004F8FBFF36F8FFFF7D5FB012006B0BDE8AB
:10355000F087FFF7CFFB22E06846FFF79DFD4FF0B5
:103560000108FFF7C7FBFFF77FFEFFF7A3FB94F906
:103570004400401C01D184F8449094F94500401C5B
:1035800001D184F84590FFF7B5FB04A9684600F027
:1035900027F930B12046FFF791F900F077FA0020C3
:1035A000D4E7FFF787FBA06BE16B884213D1FFF7ED
:1035B000A1FB04F110000499FFF7DCFD2046FFF7A2
:1035C0007DF900F063FA00289ED13E60BFF34F8F73
:1035D000BFF36F8F98E7FFF78DFB2046FFF76EF97B
:1035E00000F054FA90E7000004ED00E02DE9F04708
:1035F0001F4690468946040003D0B9F1000F08D059
:1036000011E0502080F31188BFF34F8FBFF36F8F0D
:10361000FEE7206C38B1502080F31188BFF34F8F44
:10362000BFF36F8FFEE7022F0AD1E06B012807D0AE
:10363000502080F31188BFF34F8FBFF36F8FFEE7E9
:10364000FFF7ACFB5020EFF3118680F31188BFF336
:103650004F8FBFF36F8FA06BE16B884206D3022FB1
:1036600004D0002086F31188BDE8F08794F9455016
:103670003A4649462046FEF766FE681C04D06D1C9B
:1036800084F845500120EDE7606A0028FAD004F183
:10369000240000F0C3F90028F4D0B8F1000FF1D0F5
:1036A0000121C8F80010EDE72DE9F747002683B0A7
:1036B0008A46040003D0BAF1000F08D011E0502070
:1036C00080F31188BFF34F8FBFF36F8FFEE7206C3D
:1036D00038B1502080F31188BFF34F8FBFF36F8F45
:1036E000FEE700F0E3F8DFF8F4804FF000094FF058
:1036F000805748B9059838B1502080F31188BFF33E
:103700004F8FBFF36F8FFEE7FFF7D4FAA56BC5B1FC
:1037100051462046FEF704FE6D1EA563206950B198
:1037200004F1100000F07AF928B1C8F80070BFF376
:103730004F8FBFF36F8FFFF7DDFA012006B0BDE8B2
:10374000F087059808B11EB106E0FFF7D3FA27E02D
:103750006846FFF7A1FC0126FFF7CCFAFFF784FDCE
:10376000FFF7A8FA94F94400401C01D184F8449072
:1037700094F94500401C01D184F84590FFF7BAFA4E
:1037800005A9684600F02CF8002820460AD0FFF76B
:1037900095F800F07BF92046FEF70CFF0028B3D027
:1037A0000020CBE7FEF706FF90B104F12400059955
:1037B000FFF7E0FC2046FFF781F800F067F90028EA
:1037C000A2D1C8F80070BFF34F8FBFF36F8F9BE794
:1037D0002046FFF773F800F059F995E704ED00E093
:1037E0002DE9F0410C46050011D0C4B1FFF762FA93
:1037F000174B5A696E682068911B471C17D02F68B9
:103800009B6A9F4219D0964217D8012410E050209D
:1038100080F31188BFF34F8FBFF36F8FFEE7502007
:1038200080F31188BFF34F8FBFF36F8FFEE7002443
:10383000FFF760FA2046BDE8F081884205D9401ABA
:1038400020602846FFF728FCF1E700202060DCE735
:1038500024000020F0B585B0DDE90B640A9DA6B117
:10386000DCB1602700972663022684F85D6000269D
:1038700004AFCDE90246CDE90057FEF70AFE204627
:10388000FEF7BAFC049805B0F0BD502080F3118813
:10389000BFF34F8FBFF36F8FFEE7502080F3118887
:1038A000BFF34F8FBFF36F8FFEE700000548C1697C
:1038B00019B1806B18B100207047012070470220B9
:1038C0007047000024000020014840697047000054
:1038D000240000202DE9F0412E4C0027A06B40B1C0
:1038E000206A401C2062606A00B101273846BDE8AA
:1038F000F0816669761C666113D16068006838B132
:10390000502080F31188BFF34F8FBFF36F8FFEE716
:103910006068A1686160A060A06A401CA062FEF7B8
:1039200043FF206BDFF87080864209D3606800682F
:1039300080B16068C068C568686886420DD220633F
:103940002068C06A00EB800158F821000128CAD91C
:103950000127C8E74FF0FF30F1E7281DFFF772F8A5
:10396000A86A18B105F11800FFF76CF8E86AA169B8
:10397000884200D9A06100EB800108EB8100291D7D
:10398000FFF78CF9E86A2168C96A8842CED301271B
:10399000CCE70000240000208423002070B5040040
:1039A0004FF0000133D01B4D2868844207D05020CF
:1039B00080F31188BFF34F8FBFF36F8FFEE7206D49
:1039C00038B1401E2065E36CE26A9A421FD040B1D4
:1039D0001DE0502080F31188BFF34F8FBFF36F8F2E
:1039E000FEE7201DFFF72EF8E06CE062C0F1380022
:1039F000A061E06AA969884200D9A861064900EB84
:103A0000800001EB8000211DFFF748F901210846E5
:103A100070BD0000240000208423002070B5C06821
:103A2000C46854B104F118000646FFF70BF8144DB2
:103A3000A86B50B13146134815E0502080F311882F
:103A4000BFF34F8FBFF36F8FFEE7201DFEF7FAFF26
:103A5000E06AA969884200D9A8610B4900EB80009F
:103A600001EB8000211DFFF719F9E06A2968C96A96
:103A7000884202D90120686270BD002070BD00003C
:103A8000240000200C280020842300202DE9F0478A
:103A90002C4D00242746A86B38B1FFF70BF9A86B13
:103AA000401EA863A86B40B146E0502080F3118807
:103AB000BFF34F8FBFF36F8FFEE72969224E0120BE
:103AC000D1B3A6F5916980463068E0B1F068C4686A
:103AD00004F11800FEF7B6FF201DFEF7B3FFE06A01
:103AE000A969884200D9A86100EB800109EB810037
:103AF000211DFFF7D3F8E06A2968C96A8842E3D339
:103B0000C5F82480E0E70CB1FEF74EFE2C6A4CB1FC
:103B10004FEA0806FFF7DEFE00B16E62641EF9D1BF
:103B200000202862686A38B1084901273807086010
:103B3000BFF34F8FBFF36F8FFFF7DCF83846BDE858
:103B4000F0870000240000200C28002004ED00E095
:103B500010B586B0FEF7B8FB114CA068B8B10020D4
:103B60000390049005AA04A903A8FEF7DFFFDDE98E
:103B7000032102208DE8070000230AA10B48059AC3
:103B8000FFF768FEE06010B106B0012010BD5020C4
:103B900080F31188BFF34F8FBFF36F8FFEE70000F4
:103BA00068000020546D7220537663009928000845
:103BB0002DE9FF411E46134602000A9D4FF000000A
:103BC00016D0144CA768002F0FD0CDE90013029235
:103BD000062917DAFFF76AFE02284FF000030FD01C
:103BE00000226946A068FFF751FC04B0BDE8F081EF
:103BF000502080F31188BFF34F8FBFF36F8FFEE724
:103C00002A46EEE70023324669463846FFF7EEFCC7
:103C1000EBE7000068000020030406080C101820E1
:103C20003000000000000000000102030406070845
:103C30000900000000010203040000005C3C0008D1
:103C400000000020A8000000801E0008043D0008BD
:103C5000A8000020783D0000901E00080000000031
:103C60000000000000000000000000000000000054
:103C700010000000010000000000000068FF1F00AD
:103C80000000000000000000000000000000000034
:103C90000000000000000000000000000000000024
:103CA0000000000000000000000000000000000014
:103CB0000000000000000000000000000000000004
:103CC00000000000000000000000000000000000F4
:103CD00000000000000000000000000000000000E4
:103CE00000000000000000000000000000000000D4
:103CF0000000000000000000AAAAAAAA000000001C
:043D000000000000BF
:04000005080000F5FA
:00000001FF
